{
  "_format": "hh-sol-artifact-1",
  "contractName": "WavePortal",
  "sourceName": "contracts/WavePortal.sol",
  "abi": [
    {
      "inputs": [],
      "stateMutability": "nonpayable",
      "type": "constructor"
    },
    {
      "inputs": [],
      "name": "getTotalWaves",
      "outputs": [
        {
          "internalType": "uint256",
          "name": "",
          "type": "uint256"
        }
      ],
      "stateMutability": "view",
      "type": "function"
    },
    {
      "inputs": [],
      "name": "wave",
      "outputs": [],
      "stateMutability": "nonpayable",
      "type": "function"
    },
    {
      "inputs": [
        {
          "internalType": "address",
          "name": "",
          "type": "address"
        }
      ],
      "name": "wavers",
      "outputs": [
        {
          "internalType": "uint256",
          "name": "",
          "type": "uint256"
        }
      ],
      "stateMutability": "view",
      "type": "function"
    }
  ],
  "bytecode": "0x608060405234801561001057600080fd5b506100596040518060400160405280601e81526020017f48656c6c6f20576f726c642074686973206973206120636f6e7472616374000081525061005e60201b6101e71760201c565b6101e1565b6100fa81604051602401610072919061015f565b6040516020818303038152906040527f41304fac000000000000000000000000000000000000000000000000000000007bffffffffffffffffffffffffffffffffffffffffffffffffffffffff19166020820180517bffffffffffffffffffffffffffffffffffffffffffffffffffffffff83818316178352505050506100fd60201b60201c565b50565b60008151905060006a636f6e736f6c652e6c6f679050602083016000808483855afa5050505050565b600061013182610181565b61013b818561018c565b935061014b81856020860161019d565b610154816101d0565b840191505092915050565b600060208201905081810360008301526101798184610126565b905092915050565b600081519050919050565b600082825260208201905092915050565b60005b838110156101bb5780820151818401526020810190506101a0565b838111156101ca576000848401525b50505050565b6000601f19601f8301169050919050565b6106ca806101f06000396000f3fe608060405234801561001057600080fd5b50600436106100415760003560e01c80636fe15b44146100465780639a2cdc0814610050578063d6d8960d1461006e575b600080fd5b61004e61009e565b005b610058610184565b60405161006591906104f8565b60405180910390f35b610088600480360381019061008391906103f6565b6101cf565b60405161009591906104f8565b60405180910390f35b6000808154809291906100b0906105f4565b91905055506100f46040518060400160405280600881526020017f257320776176656400000000000000000000000000000000000000000000000081525033610280565b60018060003373ffffffffffffffffffffffffffffffffffffffff1673ffffffffffffffffffffffffffffffffffffffff1681526020019081526020016000205461013f919061052f565b600160003373ffffffffffffffffffffffffffffffffffffffff1673ffffffffffffffffffffffffffffffffffffffff16815260200190815260200160002081905550565b60006101c76040518060400160405280601081526020017f576520686176652025642077617665730000000000000000000000000000000081525060005461031c565b600054905090565b60016020528060005260406000206000915090505481565b61027d816040516024016101fb9190610476565b6040516020818303038152906040527f41304fac000000000000000000000000000000000000000000000000000000007bffffffffffffffffffffffffffffffffffffffffffffffffffffffff19166020820180517bffffffffffffffffffffffffffffffffffffffffffffffffffffffff83818316178352505050506103b8565b50565b6103188282604051602401610296929190610498565b6040516020818303038152906040527f319af333000000000000000000000000000000000000000000000000000000007bffffffffffffffffffffffffffffffffffffffffffffffffffffffff19166020820180517bffffffffffffffffffffffffffffffffffffffffffffffffffffffff83818316178352505050506103b8565b5050565b6103b482826040516024016103329291906104c8565b6040516020818303038152906040527f9710a9d0000000000000000000000000000000000000000000000000000000007bffffffffffffffffffffffffffffffffffffffffffffffffffffffff19166020820180517bffffffffffffffffffffffffffffffffffffffffffffffffffffffff83818316178352505050506103b8565b5050565b60008151905060006a636f6e736f6c652e6c6f679050602083016000808483855afa5050505050565b6000813590506103f08161067d565b92915050565b60006020828403121561040857600080fd5b6000610416848285016103e1565b91505092915050565b61042881610585565b82525050565b600061043982610513565b610443818561051e565b93506104538185602086016105c1565b61045c8161066c565b840191505092915050565b610470816105b7565b82525050565b60006020820190508181036000830152610490818461042e565b905092915050565b600060408201905081810360008301526104b2818561042e565b90506104c1602083018461041f565b9392505050565b600060408201905081810360008301526104e2818561042e565b90506104f16020830184610467565b9392505050565b600060208201905061050d6000830184610467565b92915050565b600081519050919050565b600082825260208201905092915050565b600061053a826105b7565b9150610545836105b7565b9250827fffffffffffffffffffffffffffffffffffffffffffffffffffffffffffffffff0382111561057a5761057961063d565b5b828201905092915050565b600061059082610597565b9050919050565b600073ffffffffffffffffffffffffffffffffffffffff82169050919050565b6000819050919050565b60005b838110156105df5780820151818401526020810190506105c4565b838111156105ee576000848401525b50505050565b60006105ff826105b7565b91507fffffffffffffffffffffffffffffffffffffffffffffffffffffffffffffffff8214156106325761063161063d565b5b600182019050919050565b7f4e487b7100000000000000000000000000000000000000000000000000000000600052601160045260246000fd5b6000601f19601f8301169050919050565b61068681610585565b811461069157600080fd5b5056fea264697066735822122037b80d6240a3dbc5c676a998b1551b35c6de6c19f3e1c471f48b8de51b2e873364736f6c63430008040033",
  "linkReferences": {},
  "deployedLinkReferences": {}
}